{
	"contracts/Main.sol": {
		"Main": {
			"abi": [
				{
					"inputs": [],
					"name": "feeVal",
					"outputs": [
						{
							"internalType": "uint256",
							"name": "",
							"type": "uint256"
						}
					],
					"stateMutability": "view",
					"type": "function"
				},
				{
					"inputs": [],
					"name": "payFee",
					"outputs": [],
					"stateMutability": "payable",
					"type": "function"
				},
				{
					"inputs": [],
					"name": "paymentStatus",
					"outputs": [
						{
							"internalType": "bool",
							"name": "",
							"type": "bool"
						}
					],
					"stateMutability": "view",
					"type": "function"
				},
				{
					"inputs": [
						{
							"internalType": "uint256",
							"name": "_feeVal",
							"type": "uint256"
						}
					],
					"name": "setFee",
					"outputs": [],
					"stateMutability": "nonpayable",
					"type": "function"
				},
				{
					"inputs": [],
					"name": "withdrawCollectedFee",
					"outputs": [],
					"stateMutability": "nonpayable",
					"type": "function"
				}
			],
			"devdoc": {
				"kind": "dev",
				"methods": {},
				"version": 1
			},
			"evm": {
				"assembly": "    /* \"contracts/Main.sol\":86:435  contract Main {\r... */\n  mstore(0x40, 0x80)\n    /* \"contracts/Main.sol\":165:170  false */\n  0x00\n    /* \"contracts/Main.sol\":139:170  bool public paymentStatus=false */\n  0x01\n  exp(0x0100, 0x00)\n  dup2\n  sload\n  dup2\n  0xff\n  mul\n  not\n  and\n  swap1\n  dup4\n  iszero\n  iszero\n  mul\n  or\n  swap1\n  sstore\n  pop\n    /* \"contracts/Main.sol\":86:435  contract Main {\r... */\n  callvalue\n  dup1\n  iszero\n  tag_1\n  jumpi\n  0x00\n  dup1\n  revert\ntag_1:\n  pop\n  dataSize(sub_0)\n  dup1\n  dataOffset(sub_0)\n  0x00\n  codecopy\n  0x00\n  return\nstop\n\nsub_0: assembly {\n        /* \"contracts/Main.sol\":86:435  contract Main {\r... */\n      mstore(0x40, 0x80)\n      jumpi(tag_1, lt(calldatasize, 0x04))\n      shr(0xe0, calldataload(0x00))\n      dup1\n      0x29610252\n      eq\n      tag_2\n      jumpi\n      dup1\n      0x69fe0e2d\n      eq\n      tag_3\n      jumpi\n      dup1\n      0x900feb3b\n      eq\n      tag_4\n      jumpi\n      dup1\n      0xa48c30ea\n      eq\n      tag_5\n      jumpi\n      dup1\n      0xd4d68e12\n      eq\n      tag_6\n      jumpi\n    tag_1:\n      0x00\n      dup1\n      revert\n        /* \"contracts/Main.sol\":268:370  function payFee() public payable{\r... */\n    tag_2:\n      tag_7\n      tag_8\n      jump\t// in\n    tag_7:\n      stop\n        /* \"contracts/Main.sol\":185:260  function setFee(uint256 _feeVal) public {\r... */\n    tag_3:\n      callvalue\n      dup1\n      iszero\n      tag_9\n      jumpi\n      0x00\n      dup1\n      revert\n    tag_9:\n      pop\n      tag_10\n      0x04\n      dup1\n      calldatasize\n      sub\n      dup2\n      add\n      swap1\n      tag_11\n      swap2\n      swap1\n      tag_12\n      jump\t// in\n    tag_11:\n      tag_13\n      jump\t// in\n    tag_10:\n      stop\n        /* \"contracts/Main.sol\":139:170  bool public paymentStatus=false */\n    tag_4:\n      callvalue\n      dup1\n      iszero\n      tag_14\n      jumpi\n      0x00\n      dup1\n      revert\n    tag_14:\n      pop\n      tag_15\n      tag_16\n      jump\t// in\n    tag_15:\n      mload(0x40)\n      tag_17\n      swap2\n      swap1\n      tag_18\n      jump\t// in\n    tag_17:\n      mload(0x40)\n      dup1\n      swap2\n      sub\n      swap1\n      return\n        /* \"contracts/Main.sol\":111:132  uint256 public feeVal */\n    tag_5:\n      callvalue\n      dup1\n      iszero\n      tag_19\n      jumpi\n      0x00\n      dup1\n      revert\n    tag_19:\n      pop\n      tag_20\n      tag_21\n      jump\t// in\n    tag_20:\n      mload(0x40)\n      tag_22\n      swap2\n      swap1\n      tag_23\n      jump\t// in\n    tag_22:\n      mload(0x40)\n      dup1\n      swap2\n      sub\n      swap1\n      return\n        /* \"contracts/Main.sol\":378:426  function withdrawCollectedFee() public{\r... */\n    tag_6:\n      callvalue\n      dup1\n      iszero\n      tag_24\n      jumpi\n      0x00\n      dup1\n      revert\n    tag_24:\n      pop\n      tag_25\n      tag_26\n      jump\t// in\n    tag_25:\n      stop\n        /* \"contracts/Main.sol\":268:370  function payFee() public payable{\r... */\n    tag_8:\n        /* \"contracts/Main.sol\":332:338  feeVal */\n      sload(0x00)\n        /* \"contracts/Main.sol\":319:328  msg.value */\n      callvalue\n        /* \"contracts/Main.sol\":319:338  msg.value == feeVal */\n      eq\n        /* \"contracts/Main.sol\":311:360  require(msg.value == feeVal , \"incorrect amount\") */\n      tag_28\n      jumpi\n      mload(0x40)\n      0x08c379a000000000000000000000000000000000000000000000000000000000\n      dup2\n      mstore\n      0x04\n      add\n      tag_29\n      swap1\n      tag_30\n      jump\t// in\n    tag_29:\n      mload(0x40)\n      dup1\n      swap2\n      sub\n      swap1\n      revert\n    tag_28:\n        /* \"contracts/Main.sol\":268:370  function payFee() public payable{\r... */\n      jump\t// out\n        /* \"contracts/Main.sol\":185:260  function setFee(uint256 _feeVal) public {\r... */\n    tag_13:\n        /* \"contracts/Main.sol\":243:250  _feeVal */\n      dup1\n        /* \"contracts/Main.sol\":236:242  feeVal */\n      0x00\n        /* \"contracts/Main.sol\":236:250  feeVal=_feeVal */\n      dup2\n      swap1\n      sstore\n      pop\n        /* \"contracts/Main.sol\":185:260  function setFee(uint256 _feeVal) public {\r... */\n      pop\n      jump\t// out\n        /* \"contracts/Main.sol\":139:170  bool public paymentStatus=false */\n    tag_16:\n      0x01\n      0x00\n      swap1\n      sload\n      swap1\n      0x0100\n      exp\n      swap1\n      div\n      0xff\n      and\n      dup2\n      jump\t// out\n        /* \"contracts/Main.sol\":111:132  uint256 public feeVal */\n    tag_21:\n      sload(0x00)\n      dup2\n      jump\t// out\n        /* \"contracts/Main.sol\":378:426  function withdrawCollectedFee() public{\r... */\n    tag_26:\n      jump\t// out\n        /* \"#utility.yul\":7:146   */\n    tag_34:\n        /* \"#utility.yul\":53:58   */\n      0x00\n        /* \"#utility.yul\":91:97   */\n      dup2\n        /* \"#utility.yul\":78:98   */\n      calldataload\n        /* \"#utility.yul\":69:98   */\n      swap1\n      pop\n        /* \"#utility.yul\":107:140   */\n      tag_36\n        /* \"#utility.yul\":134:139   */\n      dup2\n        /* \"#utility.yul\":107:140   */\n      tag_37\n      jump\t// in\n    tag_36:\n        /* \"#utility.yul\":7:146   */\n      swap3\n      swap2\n      pop\n      pop\n      jump\t// out\n        /* \"#utility.yul\":152:481   */\n    tag_12:\n        /* \"#utility.yul\":211:217   */\n      0x00\n        /* \"#utility.yul\":260:262   */\n      0x20\n        /* \"#utility.yul\":248:257   */\n      dup3\n        /* \"#utility.yul\":239:246   */\n      dup5\n        /* \"#utility.yul\":235:258   */\n      sub\n        /* \"#utility.yul\":231:263   */\n      slt\n        /* \"#utility.yul\":228:347   */\n      iszero\n      tag_39\n      jumpi\n        /* \"#utility.yul\":266:345   */\n      tag_40\n      tag_41\n      jump\t// in\n    tag_40:\n        /* \"#utility.yul\":228:347   */\n    tag_39:\n        /* \"#utility.yul\":386:387   */\n      0x00\n        /* \"#utility.yul\":411:464   */\n      tag_42\n        /* \"#utility.yul\":456:463   */\n      dup5\n        /* \"#utility.yul\":447:453   */\n      dup3\n        /* \"#utility.yul\":436:445   */\n      dup6\n        /* \"#utility.yul\":432:454   */\n      add\n        /* \"#utility.yul\":411:464   */\n      tag_34\n      jump\t// in\n    tag_42:\n        /* \"#utility.yul\":401:464   */\n      swap2\n      pop\n        /* \"#utility.yul\":357:474   */\n      pop\n        /* \"#utility.yul\":152:481   */\n      swap3\n      swap2\n      pop\n      pop\n      jump\t// out\n        /* \"#utility.yul\":487:596   */\n    tag_43:\n        /* \"#utility.yul\":568:589   */\n      tag_45\n        /* \"#utility.yul\":583:588   */\n      dup2\n        /* \"#utility.yul\":568:589   */\n      tag_46\n      jump\t// in\n    tag_45:\n        /* \"#utility.yul\":563:566   */\n      dup3\n        /* \"#utility.yul\":556:590   */\n      mstore\n        /* \"#utility.yul\":487:596   */\n      pop\n      pop\n      jump\t// out\n        /* \"#utility.yul\":602:968   */\n    tag_47:\n        /* \"#utility.yul\":744:747   */\n      0x00\n        /* \"#utility.yul\":765:832   */\n      tag_49\n        /* \"#utility.yul\":829:831   */\n      0x10\n        /* \"#utility.yul\":824:827   */\n      dup4\n        /* \"#utility.yul\":765:832   */\n      tag_50\n      jump\t// in\n    tag_49:\n        /* \"#utility.yul\":758:832   */\n      swap2\n      pop\n        /* \"#utility.yul\":841:934   */\n      tag_51\n        /* \"#utility.yul\":930:933   */\n      dup3\n        /* \"#utility.yul\":841:934   */\n      tag_52\n      jump\t// in\n    tag_51:\n        /* \"#utility.yul\":959:961   */\n      0x20\n        /* \"#utility.yul\":954:957   */\n      dup3\n        /* \"#utility.yul\":950:962   */\n      add\n        /* \"#utility.yul\":943:962   */\n      swap1\n      pop\n        /* \"#utility.yul\":602:968   */\n      swap2\n      swap1\n      pop\n      jump\t// out\n        /* \"#utility.yul\":974:1092   */\n    tag_53:\n        /* \"#utility.yul\":1061:1085   */\n      tag_55\n        /* \"#utility.yul\":1079:1084   */\n      dup2\n        /* \"#utility.yul\":1061:1085   */\n      tag_56\n      jump\t// in\n    tag_55:\n        /* \"#utility.yul\":1056:1059   */\n      dup3\n        /* \"#utility.yul\":1049:1086   */\n      mstore\n        /* \"#utility.yul\":974:1092   */\n      pop\n      pop\n      jump\t// out\n        /* \"#utility.yul\":1098:1308   */\n    tag_18:\n        /* \"#utility.yul\":1185:1189   */\n      0x00\n        /* \"#utility.yul\":1223:1225   */\n      0x20\n        /* \"#utility.yul\":1212:1221   */\n      dup3\n        /* \"#utility.yul\":1208:1226   */\n      add\n        /* \"#utility.yul\":1200:1226   */\n      swap1\n      pop\n        /* \"#utility.yul\":1236:1301   */\n      tag_58\n        /* \"#utility.yul\":1298:1299   */\n      0x00\n        /* \"#utility.yul\":1287:1296   */\n      dup4\n        /* \"#utility.yul\":1283:1300   */\n      add\n        /* \"#utility.yul\":1274:1280   */\n      dup5\n        /* \"#utility.yul\":1236:1301   */\n      tag_43\n      jump\t// in\n    tag_58:\n        /* \"#utility.yul\":1098:1308   */\n      swap3\n      swap2\n      pop\n      pop\n      jump\t// out\n        /* \"#utility.yul\":1314:1733   */\n    tag_30:\n        /* \"#utility.yul\":1480:1484   */\n      0x00\n        /* \"#utility.yul\":1518:1520   */\n      0x20\n        /* \"#utility.yul\":1507:1516   */\n      dup3\n        /* \"#utility.yul\":1503:1521   */\n      add\n        /* \"#utility.yul\":1495:1521   */\n      swap1\n      pop\n        /* \"#utility.yul\":1567:1576   */\n      dup2\n        /* \"#utility.yul\":1561:1565   */\n      dup2\n        /* \"#utility.yul\":1557:1577   */\n      sub\n        /* \"#utility.yul\":1553:1554   */\n      0x00\n        /* \"#utility.yul\":1542:1551   */\n      dup4\n        /* \"#utility.yul\":1538:1555   */\n      add\n        /* \"#utility.yul\":1531:1578   */\n      mstore\n        /* \"#utility.yul\":1595:1726   */\n      tag_60\n        /* \"#utility.yul\":1721:1725   */\n      dup2\n        /* \"#utility.yul\":1595:1726   */\n      tag_47\n      jump\t// in\n    tag_60:\n        /* \"#utility.yul\":1587:1726   */\n      swap1\n      pop\n        /* \"#utility.yul\":1314:1733   */\n      swap2\n      swap1\n      pop\n      jump\t// out\n        /* \"#utility.yul\":1739:1961   */\n    tag_23:\n        /* \"#utility.yul\":1832:1836   */\n      0x00\n        /* \"#utility.yul\":1870:1872   */\n      0x20\n        /* \"#utility.yul\":1859:1868   */\n      dup3\n        /* \"#utility.yul\":1855:1873   */\n      add\n        /* \"#utility.yul\":1847:1873   */\n      swap1\n      pop\n        /* \"#utility.yul\":1883:1954   */\n      tag_62\n        /* \"#utility.yul\":1951:1952   */\n      0x00\n        /* \"#utility.yul\":1940:1949   */\n      dup4\n        /* \"#utility.yul\":1936:1953   */\n      add\n        /* \"#utility.yul\":1927:1933   */\n      dup5\n        /* \"#utility.yul\":1883:1954   */\n      tag_53\n      jump\t// in\n    tag_62:\n        /* \"#utility.yul\":1739:1961   */\n      swap3\n      swap2\n      pop\n      pop\n      jump\t// out\n        /* \"#utility.yul\":2048:2217   */\n    tag_50:\n        /* \"#utility.yul\":2132:2143   */\n      0x00\n        /* \"#utility.yul\":2166:2172   */\n      dup3\n        /* \"#utility.yul\":2161:2164   */\n      dup3\n        /* \"#utility.yul\":2154:2173   */\n      mstore\n        /* \"#utility.yul\":2206:2210   */\n      0x20\n        /* \"#utility.yul\":2201:2204   */\n      dup3\n        /* \"#utility.yul\":2197:2211   */\n      add\n        /* \"#utility.yul\":2182:2211   */\n      swap1\n      pop\n        /* \"#utility.yul\":2048:2217   */\n      swap3\n      swap2\n      pop\n      pop\n      jump\t// out\n        /* \"#utility.yul\":2223:2313   */\n    tag_46:\n        /* \"#utility.yul\":2257:2264   */\n      0x00\n        /* \"#utility.yul\":2300:2305   */\n      dup2\n        /* \"#utility.yul\":2293:2306   */\n      iszero\n        /* \"#utility.yul\":2286:2307   */\n      iszero\n        /* \"#utility.yul\":2275:2307   */\n      swap1\n      pop\n        /* \"#utility.yul\":2223:2313   */\n      swap2\n      swap1\n      pop\n      jump\t// out\n        /* \"#utility.yul\":2319:2396   */\n    tag_56:\n        /* \"#utility.yul\":2356:2363   */\n      0x00\n        /* \"#utility.yul\":2385:2390   */\n      dup2\n        /* \"#utility.yul\":2374:2390   */\n      swap1\n      pop\n        /* \"#utility.yul\":2319:2396   */\n      swap2\n      swap1\n      pop\n      jump\t// out\n        /* \"#utility.yul\":2525:2642   */\n    tag_41:\n        /* \"#utility.yul\":2634:2635   */\n      0x00\n        /* \"#utility.yul\":2631:2632   */\n      dup1\n        /* \"#utility.yul\":2624:2636   */\n      revert\n        /* \"#utility.yul\":2648:2814   */\n    tag_52:\n        /* \"#utility.yul\":2788:2806   */\n      0x696e636f727265637420616d6f756e7400000000000000000000000000000000\n        /* \"#utility.yul\":2784:2785   */\n      0x00\n        /* \"#utility.yul\":2776:2782   */\n      dup3\n        /* \"#utility.yul\":2772:2786   */\n      add\n        /* \"#utility.yul\":2765:2807   */\n      mstore\n        /* \"#utility.yul\":2648:2814   */\n      pop\n      jump\t// out\n        /* \"#utility.yul\":2820:2942   */\n    tag_37:\n        /* \"#utility.yul\":2893:2917   */\n      tag_73\n        /* \"#utility.yul\":2911:2916   */\n      dup2\n        /* \"#utility.yul\":2893:2917   */\n      tag_56\n      jump\t// in\n    tag_73:\n        /* \"#utility.yul\":2886:2891   */\n      dup2\n        /* \"#utility.yul\":2883:2918   */\n      eq\n        /* \"#utility.yul\":2873:2936   */\n      tag_74\n      jumpi\n        /* \"#utility.yul\":2932:2933   */\n      0x00\n        /* \"#utility.yul\":2929:2930   */\n      dup1\n        /* \"#utility.yul\":2922:2934   */\n      revert\n        /* \"#utility.yul\":2873:2936   */\n    tag_74:\n        /* \"#utility.yul\":2820:2942   */\n      pop\n      jump\t// out\n\n    auxdata: 0xa26469706673582212201f6e7815c85592e7bcf4e62fb14355a86b68b628c7e6e4ce375259007881d98a64736f6c63430008070033\n}\n",
				"bytecode": {
					"linkReferences": {},
					"object": "60806040526000600160006101000a81548160ff02191690831515021790555034801561002b57600080fd5b506102d58061003b6000396000f3fe60806040526004361061004a5760003560e01c8063296102521461004f57806369fe0e2d14610059578063900feb3b14610082578063a48c30ea146100ad578063d4d68e12146100d8575b600080fd5b6100576100ef565b005b34801561006557600080fd5b50610080600480360381019061007b919061016f565b610135565b005b34801561008e57600080fd5b5061009761013f565b6040516100a491906101dd565b60405180910390f35b3480156100b957600080fd5b506100c2610152565b6040516100cf9190610218565b60405180910390f35b3480156100e457600080fd5b506100ed610158565b005b6000543414610133576040517f08c379a000000000000000000000000000000000000000000000000000000000815260040161012a906101f8565b60405180910390fd5b565b8060008190555050565b600160009054906101000a900460ff1681565b60005481565b565b60008135905061016981610288565b92915050565b6000602082840312156101855761018461025a565b5b60006101938482850161015a565b91505092915050565b6101a581610244565b82525050565b60006101b8601083610233565b91506101c38261025f565b602082019050919050565b6101d781610250565b82525050565b60006020820190506101f2600083018461019c565b92915050565b60006020820190508181036000830152610211816101ab565b9050919050565b600060208201905061022d60008301846101ce565b92915050565b600082825260208201905092915050565b60008115159050919050565b6000819050919050565b600080fd5b7f696e636f727265637420616d6f756e7400000000000000000000000000000000600082015250565b61029181610250565b811461029c57600080fd5b5056fea26469706673582212201f6e7815c85592e7bcf4e62fb14355a86b68b628c7e6e4ce375259007881d98a64736f6c63430008070033",
					"opcodes": "PUSH1 0x80 PUSH1 0x40 MSTORE PUSH1 0x0 PUSH1 0x1 PUSH1 0x0 PUSH2 0x100 EXP DUP2 SLOAD DUP2 PUSH1 0xFF MUL NOT AND SWAP1 DUP4 ISZERO ISZERO MUL OR SWAP1 SSTORE POP CALLVALUE DUP1 ISZERO PUSH2 0x2B JUMPI PUSH1 0x0 DUP1 REVERT JUMPDEST POP PUSH2 0x2D5 DUP1 PUSH2 0x3B PUSH1 0x0 CODECOPY PUSH1 0x0 RETURN INVALID PUSH1 0x80 PUSH1 0x40 MSTORE PUSH1 0x4 CALLDATASIZE LT PUSH2 0x4A JUMPI PUSH1 0x0 CALLDATALOAD PUSH1 0xE0 SHR DUP1 PUSH4 0x29610252 EQ PUSH2 0x4F JUMPI DUP1 PUSH4 0x69FE0E2D EQ PUSH2 0x59 JUMPI DUP1 PUSH4 0x900FEB3B EQ PUSH2 0x82 JUMPI DUP1 PUSH4 0xA48C30EA EQ PUSH2 0xAD JUMPI DUP1 PUSH4 0xD4D68E12 EQ PUSH2 0xD8 JUMPI JUMPDEST PUSH1 0x0 DUP1 REVERT JUMPDEST PUSH2 0x57 PUSH2 0xEF JUMP JUMPDEST STOP JUMPDEST CALLVALUE DUP1 ISZERO PUSH2 0x65 JUMPI PUSH1 0x0 DUP1 REVERT JUMPDEST POP PUSH2 0x80 PUSH1 0x4 DUP1 CALLDATASIZE SUB DUP2 ADD SWAP1 PUSH2 0x7B SWAP2 SWAP1 PUSH2 0x16F JUMP JUMPDEST PUSH2 0x135 JUMP JUMPDEST STOP JUMPDEST CALLVALUE DUP1 ISZERO PUSH2 0x8E JUMPI PUSH1 0x0 DUP1 REVERT JUMPDEST POP PUSH2 0x97 PUSH2 0x13F JUMP JUMPDEST PUSH1 0x40 MLOAD PUSH2 0xA4 SWAP2 SWAP1 PUSH2 0x1DD JUMP JUMPDEST PUSH1 0x40 MLOAD DUP1 SWAP2 SUB SWAP1 RETURN JUMPDEST CALLVALUE DUP1 ISZERO PUSH2 0xB9 JUMPI PUSH1 0x0 DUP1 REVERT JUMPDEST POP PUSH2 0xC2 PUSH2 0x152 JUMP JUMPDEST PUSH1 0x40 MLOAD PUSH2 0xCF SWAP2 SWAP1 PUSH2 0x218 JUMP JUMPDEST PUSH1 0x40 MLOAD DUP1 SWAP2 SUB SWAP1 RETURN JUMPDEST CALLVALUE DUP1 ISZERO PUSH2 0xE4 JUMPI PUSH1 0x0 DUP1 REVERT JUMPDEST POP PUSH2 0xED PUSH2 0x158 JUMP JUMPDEST STOP JUMPDEST PUSH1 0x0 SLOAD CALLVALUE EQ PUSH2 0x133 JUMPI PUSH1 0x40 MLOAD PUSH32 0x8C379A000000000000000000000000000000000000000000000000000000000 DUP2 MSTORE PUSH1 0x4 ADD PUSH2 0x12A SWAP1 PUSH2 0x1F8 JUMP JUMPDEST PUSH1 0x40 MLOAD DUP1 SWAP2 SUB SWAP1 REVERT JUMPDEST JUMP JUMPDEST DUP1 PUSH1 0x0 DUP2 SWAP1 SSTORE POP POP JUMP JUMPDEST PUSH1 0x1 PUSH1 0x0 SWAP1 SLOAD SWAP1 PUSH2 0x100 EXP SWAP1 DIV PUSH1 0xFF AND DUP2 JUMP JUMPDEST PUSH1 0x0 SLOAD DUP2 JUMP JUMPDEST JUMP JUMPDEST PUSH1 0x0 DUP2 CALLDATALOAD SWAP1 POP PUSH2 0x169 DUP2 PUSH2 0x288 JUMP JUMPDEST SWAP3 SWAP2 POP POP JUMP JUMPDEST PUSH1 0x0 PUSH1 0x20 DUP3 DUP5 SUB SLT ISZERO PUSH2 0x185 JUMPI PUSH2 0x184 PUSH2 0x25A JUMP JUMPDEST JUMPDEST PUSH1 0x0 PUSH2 0x193 DUP5 DUP3 DUP6 ADD PUSH2 0x15A JUMP JUMPDEST SWAP2 POP POP SWAP3 SWAP2 POP POP JUMP JUMPDEST PUSH2 0x1A5 DUP2 PUSH2 0x244 JUMP JUMPDEST DUP3 MSTORE POP POP JUMP JUMPDEST PUSH1 0x0 PUSH2 0x1B8 PUSH1 0x10 DUP4 PUSH2 0x233 JUMP JUMPDEST SWAP2 POP PUSH2 0x1C3 DUP3 PUSH2 0x25F JUMP JUMPDEST PUSH1 0x20 DUP3 ADD SWAP1 POP SWAP2 SWAP1 POP JUMP JUMPDEST PUSH2 0x1D7 DUP2 PUSH2 0x250 JUMP JUMPDEST DUP3 MSTORE POP POP JUMP JUMPDEST PUSH1 0x0 PUSH1 0x20 DUP3 ADD SWAP1 POP PUSH2 0x1F2 PUSH1 0x0 DUP4 ADD DUP5 PUSH2 0x19C JUMP JUMPDEST SWAP3 SWAP2 POP POP JUMP JUMPDEST PUSH1 0x0 PUSH1 0x20 DUP3 ADD SWAP1 POP DUP2 DUP2 SUB PUSH1 0x0 DUP4 ADD MSTORE PUSH2 0x211 DUP2 PUSH2 0x1AB JUMP JUMPDEST SWAP1 POP SWAP2 SWAP1 POP JUMP JUMPDEST PUSH1 0x0 PUSH1 0x20 DUP3 ADD SWAP1 POP PUSH2 0x22D PUSH1 0x0 DUP4 ADD DUP5 PUSH2 0x1CE JUMP JUMPDEST SWAP3 SWAP2 POP POP JUMP JUMPDEST PUSH1 0x0 DUP3 DUP3 MSTORE PUSH1 0x20 DUP3 ADD SWAP1 POP SWAP3 SWAP2 POP POP JUMP JUMPDEST PUSH1 0x0 DUP2 ISZERO ISZERO SWAP1 POP SWAP2 SWAP1 POP JUMP JUMPDEST PUSH1 0x0 DUP2 SWAP1 POP SWAP2 SWAP1 POP JUMP JUMPDEST PUSH1 0x0 DUP1 REVERT JUMPDEST PUSH32 0x696E636F727265637420616D6F756E7400000000000000000000000000000000 PUSH1 0x0 DUP3 ADD MSTORE POP JUMP JUMPDEST PUSH2 0x291 DUP2 PUSH2 0x250 JUMP JUMPDEST DUP2 EQ PUSH2 0x29C JUMPI PUSH1 0x0 DUP1 REVERT JUMPDEST POP JUMP INVALID LOG2 PUSH5 0x6970667358 0x22 SLT KECCAK256 0x1F PUSH15 0x7815C85592E7BCF4E62FB14355A86B PUSH9 0xB628C7E6E4CE375259 STOP PUSH25 0x81D98A64736F6C634300080700330000000000000000000000 "
				},
				"gasEstimates": {
					"creation": {
						"codeDepositCost": "145000",
						"executionCost": "24457",
						"totalCost": "169457"
					},
					"external": {
						"feeVal()": "2473",
						"payFee()": "2509",
						"paymentStatus()": "2493",
						"setFee(uint256)": "22520",
						"withdrawCollectedFee()": "210"
					}
				},
				"methodIdentifiers": {
					"feeVal()": "a48c30ea",
					"payFee()": "29610252",
					"paymentStatus()": "900feb3b",
					"setFee(uint256)": "69fe0e2d",
					"withdrawCollectedFee()": "d4d68e12"
				}
			},
			"storageLayout": {
				"storage": [
					{
						"astId": 3,
						"contract": "contracts/Main.sol:Main",
						"label": "feeVal",
						"offset": 0,
						"slot": "0",
						"type": "t_uint256"
					},
					{
						"astId": 6,
						"contract": "contracts/Main.sol:Main",
						"label": "paymentStatus",
						"offset": 0,
						"slot": "1",
						"type": "t_bool"
					}
				],
				"types": {
					"t_bool": {
						"encoding": "inplace",
						"label": "bool",
						"numberOfBytes": "1"
					},
					"t_uint256": {
						"encoding": "inplace",
						"label": "uint256",
						"numberOfBytes": "32"
					}
				}
			},
			"userdoc": {
				"kind": "user",
				"methods": {},
				"version": 1
			}
		}
	}
}